:100000000C942A000C9406010C9433010C944301C7
:100010000C943C000C943C000C943C000C943C0070
:100020000C943C000C943C000C943C000C943C0060
:100030000C943C000C943C000C943C000C943C0050
:100040000C943C000C943C000C943C000C943C0040
:100050000C943C0011241FBECFE5D8E0DEBFCDBF1D
:1000600010E0A0E6B0E001C01D92A836B107E1F7AC
:100070000E947A080C9404090C940000DF93CF933B
:1000800000D00F92CDB7DEB78A836B8381E089837E
:100090008A816B8141E00E946202898389810F908D
:1000A0000F900F90CF91DF910895DF93CF9300D001
:1000B0000F92CDB7DEB78A836B8381E089838A8113
:1000C0006B8140E00E946202898389810F900F90CA
:1000D0000F90CF91DF910895DF93CF9300D00F92CF
:1000E000CDB7DEB78A836B8381E089838A816B8198
:1000F0000E940804898389810F900F900F90CF91FF
:10010000DF910895DF93CF93CDB7DEB7AFE5B0E0D1
:10011000EFE5F0E0808180688C93CF91DF910895C6
:10012000DF93CF93CDB7DEB7AFE5B0E0EFE5F0E01A
:1001300080818F778C93CF91DF910895DF93CF9358
:1001400000D0CDB7DEB79A83898389819A81909355
:100150006100809360000F900F90CF91DF91089520
:10016000DF93CF930F92CDB7DEB789830E948200D1
:10017000ABE5B0E0EBE5F0E0808180648C93A5E531
:10018000B0E0E5E5F0E080818D7F8C93A5E5B0E0FF
:10019000E5E5F0E080818E7F8C930F90CF91DF9129
:1001A0000895DF93CF93CDB7DEB70E948200ABE511
:1001B000B0E0EBE5F0E0808180688C93A5E5B0E0ED
:1001C000E5E5F0E0808188608C93A5E5B0E0E5E5A9
:1001D000F0E080818B7F8C93CF91DF910895DF9346
:1001E000CF93CDB7DEB70E948200ABE5B0E0EBE580
:1001F000F0E0808180688C93A4E5B0E0E4E5F0E075
:1002000080818F7B8C93CF91DF9108951F920F9205
:100210000FB60F9211242F933F934F935F936F93D9
:100220007F938F939F93AF93BF93EF93FF93DF934E
:10023000CF93CDB7DEB7E0916000F09161000995F2
:10024000CF91DF91FF91EF91BF91AF919F918F91EE
:100250007F916F915F914F913F912F910F900FBEC2
:100260000F901F9018951F920F920FB60F921124A6
:10027000DF93CF93CDB7DEB7CF91DF910F900FBE55
:100280000F901F9018951F920F920FB60F92112486
:10029000DF93CF93CDB7DEB7CF91DF910F900FBE35
:1002A0000F901F901895DF93CF93CDB7DEB72897A7
:1002B0000FB6F894DEBF0FBECDBF8A836B834C832D
:1002C00081E089838B81883008F0F1C08C81813096
:1002D00009F071C08A81282F30E038872F838F8101
:1002E00098858130910549F12F813885223031057B
:1002F0002CF48F819885009761F05BC02F81388541
:100300002230310571F18F81988583309105E9F1B3
:1003100050C0AAE3B0E0EAE3F0E08081482F8B818F
:10032000282F30E081E090E0022E02C0880F991F54
:100330000A94E2F7842B8C93BBC0A7E3B0E0E7E319
:10034000F0E08081482F8B81282F30E081E090E021
:10035000022E02C0880F991F0A94E2F7842B8C9317
:10036000A7C0A4E3B0E0E4E3F0E08081482F8B81F4
:10037000282F30E081E090E0022E02C0880F991F04
:100380000A94E2F7842B8C9393C0A1E3B0E0E1E3FD
:10039000F0E08081482F8B81282F30E081E090E0D1
:1003A000022E02C0880F991F0A94E2F7842B8C93C7
:1003B0007FC019827DC08C81882309F076C08A8134
:1003C000282F30E03E832D838D819E8181309105E1
:1003D00059F12D813E81223031052CF48D819E8191
:1003E000009769F060C02D813E812230310589F18E
:1003F0008D819E818330910509F440C054C0AAE3E9
:10040000B0E0EAE3F0E08081482F8B81282F30E0D4
:1004100081E090E0022E02C0880F991F0A94E2F753
:10042000809584238C9344C0A7E3B0E0E7E3F0E039
:100430008081482F8B81282F30E081E090E0022ED0
:1004400002C0880F991F0A94E2F7809584238C9349
:100450002FC0A4E3B0E0E4E3F0E08081482F8B817B
:10046000282F30E081E090E0022E02C0880F991F13
:100470000A94E2F7809584238C931AC0A1E3B0E03C
:10048000E1E3F0E08081482F8B81282F30E081E08C
:1004900090E0022E02C0880F991F0A94E2F780951F
:1004A00084238C9305C0198203C0198201C019826C
:1004B000898128960FB6F894DEBF0FBECDBFCF91CD
:1004C000DF910895DF93CF93CDB7DEB728970FB6AE
:1004D000F894DEBF0FBECDBF8A836B834C8381E06F
:1004E00089838B81883008F0F1C08C81813009F0DC
:1004F00071C08A81282F30E038872F838F819885BB
:100500008130910549F12F813885223031052CF455
:100510008F819885009761F05BC02F8138852230EC
:10052000310571F18F81988583309105E9F150C0D3
:10053000ABE3B0E0EBE3F0E08081482F8B81282F24
:1005400030E081E090E0022E02C0880F991F0A94EB
:10055000E2F7842B8C93BBC0A8E3B0E0E8E3F0E0C3
:100560008081482F8B81282F30E081E090E0022E9F
:1005700002C0880F991F0A94E2F7842B8C93A7C0BE
:10058000A5E3B0E0E5E3F0E08081482F8B81282FE0
:1005900030E081E090E0022E02C0880F991F0A949B
:1005A000E2F7842B8C9393C0A2E3B0E0E2E3F0E0A7
:1005B0008081482F8B81282F30E081E090E0022E4F
:1005C00002C0880F991F0A94E2F7842B8C937FC096
:1005D00019827DC08C81882309F076C08A81282FFA
:1005E00030E03E832D838D819E818130910559F1CC
:1005F0002D813E81223031052CF48D819E81009722
:1006000069F060C02D813E812230310589F18D81F4
:100610009E818330910509F440C054C0ABE3B0E043
:10062000EBE3F0E08081482F8B81282F30E081E0E0
:1006300090E0022E02C0880F991F0A94E2F780957D
:1006400084238C9344C0A8E3B0E0E8E3F0E0808129
:10065000482F8B81282F30E081E090E0022E02C0ED
:10066000880F991F0A94E2F7809584238C932FC0FA
:10067000A5E3B0E0E5E3F0E08081482F8B81282FEF
:1006800030E081E090E0022E02C0880F991F0A94AA
:10069000E2F7809584238C931AC0A2E3B0E0E2E3F2
:1006A000F0E08081482F8B81282F30E081E090E0BE
:1006B000022E02C0880F991F0A94E2F780958423C6
:1006C0008C9305C0198203C0198201C019828981E7
:1006D00028960FB6F894DEBF0FBECDBFCF91DF9145
:1006E0000895DF93CF93CDB7DEB727970FB6F89471
:1006F000DEBF0FBECDBF8A836B835D834C8381E0F9
:1007000089838B81883008F078C08C819D81009727
:1007100009F473C08A81282F30E03F832E834E81F5
:100720005F814130510559F18E819F818230910561
:1007300034F42E813F812115310569F05CC04E8172
:100740005F814230510579F18E819F81833091051F
:1007500009F43DC050C0E9E3F0E08081282F30E08B
:100760008B81882F90E0A90102C0559547958A9505
:10077000E2F7CA018170EC81FD8180833FC0E6E32E
:10078000F0E08081282F30E08B81882F90E0A90154
:1007900002C0559547958A95E2F7CA018170EC81B0
:1007A000FD8180832BC0E3E3F0E08081282F30E0DF
:1007B0008B81882F90E0A90102C0559547958A95B5
:1007C000E2F7CA018170EC81FD81808317C0E0E30C
:1007D000F0E08081282F30E08B81882F90E0A90104
:1007E00002C0559547958A95E2F7CA018170EC8160
:1007F000FD81808303C0198201C0198289812796F7
:100800000FB6F894DEBF0FBECDBFCF91DF91089534
:10081000DF93CF9300D000D00F92CDB7DEB78A839D
:100820006B8381E089838A81282F30E03D832C838C
:100830008C819D818130910549F12C813D8122304F
:1008400031052CF48C819D81009761F05BC02C8177
:100850003D812230310571F18C819D81833091057C
:10086000E9F150C0ABE3B0E0EBE3F0E08081482F6A
:100870008B81282F30E081E090E0022E02C0880FAB
:10088000991F0A94E2F784278C933DC0A8E3B0E057
:10089000E8E3F0E08081482F8B81282F30E081E071
:1008A00090E0022E02C0880F991F0A94E2F7842775
:1008B0008C9329C0A5E3B0E0E5E3F0E08081482F08
:1008C0008B81282F30E081E090E0022E02C0880F5B
:1008D000991F0A94E2F784278C9315C0A2E3B0E035
:1008E000E2E3F0E08081482F8B81282F30E081E027
:1008F00090E0022E02C0880F991F0A94E2F7842725
:100900008C9301C0198289810F900F900F900F90E6
:100910000F90CF91DF910895DF93CF9300D000D057
:100920000F92CDB7DEB78A836B8381E089838B8199
:100930008F3F19F08B818823A1F58B81282F30E020
:100940003D832C838C819D8181309105D1F02C8158
:100950003D81223031052CF48C819D81009761F01E
:100960001FC02C813D812230310581F08C819D8119
:100970008330910581F014C0EAE3F0E08B8180833D
:1009800010C0E7E3F0E08B8180830BC0E4E3F0E08C
:100990008B81808306C0E1E3F0E08B81808301C01E
:1009A000198289810F900F900F900F900F90CF9127
:1009B000DF910895DF93CF9300D000D00F92CDB791
:1009C000DEB78A836B8381E089838A81282F30E0B8
:1009D0003D832C838C819D8181309105D1F02C81C8
:1009E0003D81223031052CF48C819D81009761F08E
:1009F0001FC02C813D812230310581F08C819D8189
:100A00008330910581F014C0EBE3F0E08B818083AB
:100A100010C0E8E3F0E08B8180830BC0E5E3F0E0F9
:100A20008B81808306C0E2E3F0E08B81808301C08C
:100A3000198289810F900F900F900F900F90CF9196
:100A4000DF910895DF93CF9300D000D000D0CDB7D1
:100A5000DEB78A837C836B8381E089838A818430DB
:100A600008F040C08B819C810097E1F18A81282F9A
:100A700030E03E832D838D819E8181309105E1F0B0
:100A80002D813E81223031052CF48D819E8100978D
:100A900061F027C02D813E8122303105A1F08D818A
:100AA0009E8183309105B1F01CC0E9E3F0E08081C4
:100AB000EB81FC81808316C0E6E3F0E08081EB816E
:100AC000FC8180830FC0E3E3F0E08081EB81FC8157
:100AD000808308C0E0E3F0E08081EB81FC818083CB
:100AE00001C01982898126960FB6F894DEBF0FBE29
:100AF000CDBFCF91DF910895DF93CF9300D00F92B8
:100B0000CDB7DEB78A836B8381E089838A816B816D
:100B100040E00E94530189838981813031F48A81C8
:100B20006B8141E00E946202898389810F900F905E
:100B30000F90CF91DF910895DF93CF93CDB7DEB7BC
:100B4000A3E5B0E0E3E5F0E0808180648C93A3E569
:100B5000B0E0E3E5F0E0808188608C93A3E5B0E04D
:100B6000E3E5F0E080818F778C93ECE5F0E08FE7B0
:100B70008083A3E5B0E0E3E5F0E080818F7E8C9395
:100B8000A3E5B0E0E3E5F0E0808180628C93A3E52B
:100B9000B0E0E3E5F0E08081887F8C93A3E5B0E0EE
:100BA000E3E5F0E0808182608C9381E063E041E0E6
:100BB0000E945301E2E5F0E01082CF91DF910895A9
:100BC000DF93CF93CDB7DEB7AFE4B0E0EFE4F0E072
:100BD00080818E7F8C93AFE4B0E0EFE4F0E0808121
:100BE00082608C93AEE4B0E0EEE4F0E08081886057
:100BF0008C93AEE4B0E0EEE4F0E0808180618C9311
:100C0000E6E4F0E080E49CE991838083EAE4F0E0AC
:100C100080E09AE091838083AFE4B0E0EFE4F0E01D
:100C2000808180688C93AFE4B0E0EFE4F0E08081F5
:100C30008F7B8C93AEE4B0E0EEE4F0E080818875C9
:100C40008C93AEE4B0E0EEE4F0E0808182608C93BF
:100C500083E065E041E00E945301CF91DF91089568
:100C6000DF93CF93CDB7DEB7AFE4B0E0EFE4F0E0D1
:100C700080818E7F8C93AFE4B0E0EFE4F0E0808180
:100C80008D7F8C93AEE4B0E0EEE4F0E08081877F6E
:100C90008C93AEE4B0E0EEE4F0E080818F7E8C9344
:100CA000AFE4B0E0EFE4F0E080818F778C93AFE4C5
:100CB000B0E0EFE4F0E080818F7B8C93AEE4B0E0B5
:100CC000EEE4F0E0808188758C93AEE4B0E0EEE471
:100CD000F0E0808182608C9383E065E041E00E94D7
:100CE0005301CF91DF910895DF93CF9300D0CDB71B
:100CF000DEB79A838983AFE4B0E0EFE4F0E080816F
:100D00008F778C93AFE4B0E0EFE4F0E080818F7BED
:100D10008C93AEE4B0E0EEE4F0E0808188758C93D3
:100D2000AEE4B0E0EEE4F0E0808182608C9383E09A
:100D300065E041E00E9453010F900F90CF91DF9149
:100D40000895DF93CF93CDB7DEB7AFE4B0E0EFE423
:100D5000F0E080818E7F8C93AFE4B0E0EFE4F0E0D0
:100D6000808182608C93AEE4B0E0EEE4F0E08081BC
:100D700088608C93AEE4B0E0EEE4F0E080818061C6
:100D80008C93E6E4F0E080E49CE991838083EAE4DC
:100D9000F0E080ED97E091838083AFE4B0E0EFE492
:100DA000F0E0808180688C93AFE4B0E0EFE4F0E0A5
:100DB00080818F7B8C93AEE4B0E0EEE4F0E0808144
:100DC00088758C93AEE4B0E0EEE4F0E08081826060
:100DD0008C9383E065E041E00E945301CF91DF9165
:100DE0000895DF93CF93CDB7DEB7AEE4B0E0EEE485
:100DF000F0E0808188758C93AEE4B0E0EEE4F0E042
:100E0000808182608C9383E065E041E00E94530121
:100E1000CF91DF910895DF93CF93CDB7DEB7A5E4EF
:100E2000B0E0E5E4F0E0808180648C93A5E4B0E07C
:100E3000E5E4F0E0808188608C93E3E4F0E088EC06
:100E40008083A5E4B0E0E5E4F0E080818F7E8C93C0
:100E5000A5E4B0E0E5E4F0E0808180628C9383E07B
:100E600067E041E00E945301CF91DF910895DF9345
:100E7000CF93CDB7DEB7A5E4B0E0E5E4F0E0808144
:100E80008F7B8C93A5E4B0E0E5E4F0E08081877F80
:100E90008C93A5E4B0E0E5E4F0E080818F7D8C9355
:100EA000A5E4B0E0E5E4F0E0808180618C93A5E406
:100EB000B0E0E5E4F0E08081887F8C93A5E4B0E0C9
:100EC000E5E4F0E0808184608C93CF91DF91089518
:100ED000DF93CF930F92CDB7DEB78983A5E4B0E05F
:100EE000E5E4F0E080818F7B8C93A5E4B0E0E5E45D
:100EF000F0E0808188608C93E3E4F0E08981808376
:100F0000A5E4B0E0E5E4F0E080818F7D8C93A5E47A
:100F1000B0E0E5E4F0E080818F7E8C93A5E4B0E062
:100F2000E5E4F0E08081887F8C93A5E4B0E0E5E41F
:100F3000F0E0808184608C930F90CF91DF910895D1
:100F4000DF93CF930F92CDB7DEB78983A5E4B0E0EE
:100F5000E5E4F0E0808180648C93A5E4B0E0E5E412
:100F6000F0E0808188608C93A5E4B0E0E5E4F0E0F7
:100F700080818F7E8C93A5E4B0E0E5E4F0E0808191
:100F800080628C93E3E4F0E089818083A5E4B0E0A3
:100F9000E5E4F0E08081887F8C93A5E4B0E0E5E4AF
:100FA000F0E0808184608C9383E067E041E00E9400
:100FB00053010F90CF91DF910895DF93CF930F925C
:100FC000CDB7DEB78983A5E4B0E0E5E4F0E0808149
:100FD00080648C93A5E4B0E0E5E4F0E08081877F55
:100FE0008C93A5E4B0E0E5E4F0E0808180618C932F
:100FF000A5E4B0E0E5E4F0E0808180628C93E3E476
:10100000F0E089818083A5E4B0E0E5E4F0E0808150
:10101000887F8C93A5E4B0E0E5E4F0E08081846013
:101020008C9383E067E041E00E9453010F90CF91E1
:10103000DF910895DF93CF93CDB7DEB72C970FB62E
:10104000F894DEBF0FBECDBF69877A878B879C87F8
:101050001D821E821F82188689859A85AB85BC8574
:1010600020E83EE340E050E0BC01CD010E94C3080F
:10107000DC01CB0120E436E040E050E0BC01CD01D2
:101080000E94E208DA01C90189839A83AB83BC8399
:101090001BC0E8E5F0E08081882F90E081709070BF
:1010A0000097B9F3A8E5B0E0E8E5F0E08081816061
:1010B0008C938D819E81AF81B8850196A11DB11D54
:1010C0008D839E83AF83B8872D813E814F81588564
:1010D00089819A81AB81BC81281739074A075B0750
:1010E000C0F22C960FB6F894DEBF0FBECDBFCF91E5
:1010F000DF910895DF93CF93CDB7DEB783E062E051
:1011000040E00E94530183E090E00E94B0008EE82E
:1011100098E00E949E000E949C05FFCFDF93CF9332
:10112000CDB7DEB780916400882369F480916600B2
:10113000882349F4E2E5F0E080818093670081E054
:10114000809364001DC080916400813061F4E2E509
:10115000F0E080818093660082E090E00E94B00021
:10116000109264000DC080916400882349F480913E
:101170006600882329F0E2E5F0E080818093650035
:10118000CF91DF910895629FD001739FF001829FFC
:10119000E00DF11D649FE00DF11D929FF00D839F06
:1011A000F00D749FF00D659FF00D9927729FB00DA3
:1011B000E11DF91F639FB00DE11DF91FBD01CF01B6
:1011C00011240895A1E21A2EAA1BBB1BFD010DC01C
:1011D000AA1FBB1FEE1FFF1FA217B307E407F507E7
:1011E00020F0A21BB30BE40BF50B661F771F881FC3
:1011F000991F1A9469F760957095809590959B0159
:0C120000AC01BD01CF010895F894FFCFB0
:00000001FF
