:100000000C942A000C943C000C943C000C943C0092
:100010000C943C000C943C000C943C000C943C0070
:100020000C943C000C943C000C943C000C943C0060
:100030000C943C000C943C000C943C000C943C0050
:100040000C943C000C943C000C943C000C943C0040
:100050000C943C0011241FBECFE5D8E0DEBFCDBF1D
:1000600010E0A0E6B0E001C01D92A136B107E1F7B3
:100070000E9403040C944B040C940000DF93CF9374
:10008000CDB7DEB728970FB6F894DEBF0FBECDBF51
:100090008A836B834C8381E089838B81883008F06D
:1000A000F1C08C81813009F071C08A81282F30E045
:1000B00038872F838F8198858130910549F12F8171
:1000C0003885223031052CF48F819885009761F0B6
:1000D0005BC02F8138852230310571F18F81988581
:1000E00083309105E9F150C0AAE3B0E0EAE3F0E023
:1000F0008081482F8B81282F30E081E090E0022E14
:1001000002C0880F991F0A94E2F7842B8C93BBC01E
:10011000A7E3B0E0E7E3F0E08081482F8B81282F50
:1001200030E081E090E0022E02C0880F991F0A940F
:10013000E2F7842B8C93A7C0A4E3B0E0E4E3F0E003
:100140008081482F8B81282F30E081E090E0022EC3
:1001500002C0880F991F0A94E2F7842B8C9393C0F6
:10016000A1E3B0E0E1E3F0E08081482F8B81282F0C
:1001700030E081E090E0022E02C0880F991F0A94BF
:10018000E2F7842B8C937FC019827DC08C818823F9
:1001900009F076C08A81282F30E03E832D838D813F
:1001A0009E818130910559F12D813E8122303105AA
:1001B0002CF48D819E81009769F060C02D813E8175
:1001C0002230310589F18D819E818330910509F4BA
:1001D00040C054C0AAE3B0E0EAE3F0E08081482FD9
:1001E0008B81282F30E081E090E0022E02C0880F42
:1001F000991F0A94E2F7809584238C9344C0A7E367
:10020000B0E0E7E3F0E08081482F8B81282F30E0D9
:1002100081E090E0022E02C0880F991F0A94E2F755
:10022000809584238C932FC0A4E3B0E0E4E3F0E056
:100230008081482F8B81282F30E081E090E0022ED2
:1002400002C0880F991F0A94E2F7809584238C934B
:100250001AC0A1E3B0E0E1E3F0E08081482F8B8198
:10026000282F30E081E090E0022E02C0880F991F15
:100270000A94E2F7809584238C9305C0198203C009
:10028000198201C01982898128960FB6F894DEBFC1
:100290000FBECDBFCF91DF910895DF93CF93CDB740
:1002A000DEB728970FB6F894DEBF0FBECDBF8A83A6
:1002B0006B834C8381E089838B81883008F0F1C0A7
:1002C0008C81813009F071C08A81282F30E0388715
:1002D0002F838F8198858130910549F12F81388551
:1002E000223031052CF48F819885009761F05BC036
:1002F0002F8138852230310571F18F8198858330C7
:100300009105E9F150C0ABE3B0E0EBE3F0E08081B0
:10031000482F8B81282F30E081E090E0022E02C030
:10032000880F991F0A94E2F7842B8C93BBC0A8E333
:10033000B0E0E8E3F0E08081482F8B81282F30E0A7
:1003400081E090E0022E02C0880F991F0A94E2F724
:10035000842B8C93A7C0A5E3B0E0E5E3F0E08081B7
:10036000482F8B81282F30E081E090E0022E02C0E0
:10037000880F991F0A94E2F7842B8C9393C0A2E311
:10038000B0E0E2E3F0E08081482F8B81282F30E05D
:1003900081E090E0022E02C0880F991F0A94E2F7D4
:1003A000842B8C937FC019827DC08C81882309F0B7
:1003B00076C08A81282F30E03E832D838D819E81F7
:1003C0008130910559F12D813E81223031052CF487
:1003D0008D819E81009769F060C02D813E81223021
:1003E000310589F18D819E818330910509F440C0EA
:1003F00054C0ABE3B0E0EBE3F0E08081482F8B81A9
:10040000282F30E081E090E0022E02C0880F991F73
:100410000A94E2F7809584238C9344C0A8E3B0E06B
:10042000E8E3F0E08081482F8B81282F30E081E0E5
:1004300090E0022E02C0880F991F0A94E2F780957F
:1004400084238C932FC0A5E3B0E0E5E3F0E0808146
:10045000482F8B81282F30E081E090E0022E02C0EF
:10046000880F991F0A94E2F7809584238C931AC011
:10047000A2E3B0E0E2E3F0E08081482F8B81282FF7
:1004800030E081E090E0022E02C0880F991F0A94AC
:10049000E2F7809584238C9305C0198203C01982EA
:1004A00001C01982898128960FB6F894DEBF0FBE6D
:1004B000CDBFCF91DF910895DF93CF93CDB7DEB756
:1004C00027970FB6F894DEBF0FBECDBF8A836B832C
:1004D0005D834C8381E089838B81883008F078C00C
:1004E0008C819D81009709F473C08A81282F30E0A8
:1004F0003F832E834E815F814130510559F18E81BA
:100500009F818230910534F42E813F812115310580
:1005100069F05CC04E815F814230510579F18E8176
:100520009F818330910509F43DC050C0E9E3F0E0BC
:100530008081282F30E08B81882F90E0A90102C0B4
:10054000559547958A95E2F7CA018170EC81FD8146
:1005500080833FC0E6E3F0E08081282F30E08B818C
:10056000882F90E0A90102C0559547958A95E2F73A
:10057000CA018170EC81FD8180832BC0E3E3F0E050
:100580008081282F30E08B81882F90E0A90102C064
:10059000559547958A95E2F7CA018170EC81FD81F6
:1005A000808317C0E0E3F0E08081282F30E08B816A
:1005B000882F90E0A90102C0559547958A95E2F7EA
:1005C000CA018170EC81FD81808303C0198201C062
:1005D0001982898127960FB6F894DEBF0FBECDBF72
:1005E000CF91DF910895DF93CF9300D000D00F9289
:1005F000CDB7DEB78A836B8381E089838B818F3FA0
:1006000019F08B818823A1F58B81282F30E03D8361
:100610002C838C819D8181309105D1F02C813D818D
:10062000223031052CF48C819D81009761F01FC030
:100630002C813D812230310581F08C819D81833078
:10064000910581F014C0EAE3F0E08B81808310C053
:10065000E7E3F0E08B8180830BC0E4E3F0E08B8183
:10066000808306C0E4E3F0E08B81808301C01982BF
:1006700089810F900F900F900F900F90CF91DF9185
:100680000895DF93CF9300D000D00F92CDB7DEB79F
:100690008A836B8381E089838A81282F30E03D83C0
:1006A0002C838C819D8181309105D1F02C813D81FD
:1006B000223031052CF48C819D81009761F01FC0A0
:1006C0002C813D812230310581F08C819D818330E8
:1006D000910581F014C0EBE3F0E08B81808310C0C2
:1006E000E8E3F0E08B8180830BC0E5E3F0E08B81F1
:1006F000808306C0E2E3F0E08B81808301C0198231
:1007000089810F900F900F900F900F90CF91DF91F4
:100710000895DF93CF9300D000D000D0CDB7DEB7DF
:100720008A837C836B8381E089838A81843008F0AB
:1007300040C08B819C810097E1F18A81282F30E0B5
:100740003E832D838D819E8181309105E1F02D8145
:100750003E81223031052CF48D819E81009761F01D
:1007600027C02D813E8122303105A1F08D819E81EF
:1007700083309105B1F01CC0E9E3F0E08081EB81AA
:10078000FC81808316C0E6E3F0E08081EB81FC8190
:1007900080830FC0E3E3F0E08081EB81FC81808304
:1007A00008C0E0E3F0E08081EB81FC81808301C040
:1007B0001982898126960FB6F894DEBF0FBECDBF91
:1007C000CF91DF910895DF93CF9300D00F92CDB7F3
:1007D000DEB78A836B8381E089838A816B8140E005
:1007E0000E943E0089838981813031F48A816B8146
:1007F00041E00E944D01898389810F900F900F90F5
:10080000CF91DF910895DF93CF93CDB7DEB783E02B
:1008100063E041E00E943E0082E062E041E00E942D
:100820003E0082E067E041E00E943E0081E060E03F
:1008300040E00E943E0083E062E040E00E943E0013
:1008400020E630E083E062E0A9010E945C02809132
:100850006000813081F483E063E041E00E944D015B
:1008600082E062E041E00E944D0182E067E041E009
:100870000E944D01E5CF83E063E040E00E944D011E
:1008800082E062E040E00E944D0182E067E040E0EB
:0A0890000E944D01D5CFF894FFCF70
:00000001FF
