:100000000C942A000C9447000C9447000C94470071
:100010000C9447000C9447000C9447000C94470044
:100020000C9447000C9447000C9447000C94470034
:100030000C9447000C9447000C9447000C94470024
:100040000C94CB050C9447000C9447000C9447008B
:100050000C94470011241FBECFE5D8E0DEBFCDBF12
:1000600010E0A0E6B0E0ECE6FDE002C005900D92E5
:10007000A236B107D9F710E0A2E6B0E001C01D92A8
:10008000AF37B107E1F70E945F060C94B4060C94F9
:100090000000DF93CF93CDB7DEB7AFE5B0E0EFE57B
:1000A000F0E0808180688C93CF91DF910895DF9399
:1000B000CF93CDB7DEB7AFE5B0E0EFE5F0E08081FC
:1000C0008F778C93CF91DF910895DF93CF93CDB746
:1000D000DEB728970FB6F894DEBF0FBECDBF8A8378
:1000E0006B834C8381E089838B81883008F0F4C076
:1000F0008C81813009F072C08A81282F30E03887E6
:100100002F838F8198858130910549F12F81388522
:10011000223031052CF48F819885009761F05BC007
:100120002F8138852230310571F18F819885833098
:100130009105E9F150C0AAE3B0E0EAE3F0E0808184
:10014000482F8B81282F30E081E090E0022E02C002
:10015000880F991F0A94E2F7842B8C93BFC0A7E302
:10016000B0E0E7E3F0E08081482F8B81282F30E07A
:1001700081E090E0022E02C0880F991F0A94E2F7F6
:10018000842B8C93ABC0A4E3B0E0E4E3F0E0808187
:10019000482F8B81282F30E081E090E0022E02C0B2
:1001A000880F991F0A94E2F7842B8C9397C0A1E3E0
:1001B000B0E0E1E3F0E08081482F8B81282F30E030
:1001C00081E090E0022E02C0880F991F0A94E2F7A6
:1001D000842B8C9383C08FEF898380C08C8188238C
:1001E00009F077C08A81282F30E03E832D838D81EE
:1001F0009E818130910559F12D813E81223031055A
:100200002CF48D819E81009769F060C02D813E8124
:100210002230310589F18D819E818330910509F469
:1002200040C054C0AAE3B0E0EAE3F0E08081482F88
:100230008B81282F30E081E090E0022E02C0880FF1
:10024000991F0A94E2F7809584238C9347C0A7E313
:10025000B0E0E7E3F0E08081482F8B81282F30E089
:1002600081E090E0022E02C0880F991F0A94E2F705
:10027000809584238C9332C0A4E3B0E0E4E3F0E003
:100280008081482F8B81282F30E081E090E0022E82
:1002900002C0880F991F0A94E2F7809584238C93FB
:1002A0001DC0A1E3B0E0E1E3F0E08081482F8B8145
:1002B000282F30E081E090E0022E02C0880F991FC5
:1002C0000A94E2F7809584238C9308C08FEF89838A
:1002D00005C08FEF898302C08FEF898389812896BB
:1002E0000FB6F894DEBF0FBECDBFCF91DF9108955A
:1002F000DF93CF93CDB7DEB728970FB6F894DEBF64
:100300000FBECDBF8A836B834C8381E089838B8151
:10031000883008F0F4C08C81813009F072C08A8185
:10032000282F30E038872F838F8198858130910581
:1003300049F12F813885223031052CF48F81988541
:10034000009761F05BC02F8138852230310571F153
:100350008F81988583309105E9F150C0ABE3B0E01F
:10036000EBE3F0E08081482F8B81282F30E081E0A3
:1003700090E0022E02C0880F991F0A94E2F7842BA6
:100380008C93BFC0A8E3B0E0E8E3F0E08081482FA1
:100390008B81282F30E081E090E0022E02C0880F90
:1003A000991F0A94E2F7842B8C93ABC0A5E3B0E0CD
:1003B000E5E3F0E08081482F8B81282F30E081E059
:1003C00090E0022E02C0880F991F0A94E2F7842B56
:1003D0008C9397C0A2E3B0E0E2E3F0E08081482F85
:1003E0008B81282F30E081E090E0022E02C0880F40
:1003F000991F0A94E2F7842B8C9383C08FEF898333
:1004000080C08C81882309F077C08A81282F30E052
:100410003E832D838D819E818130910559F12D81FF
:100420003E81223031052CF48D819E81009769F048
:1004300060C02D813E812230310589F18D819E8100
:100440008330910509F440C054C0ABE3B0E0EBE366
:10045000F0E08081482F8B81282F30E081E090E010
:10046000022E02C0880F991F0A94E2F78095842318
:100470008C9347C0A8E3B0E0E8E3F0E08081482F28
:100480008B81282F30E081E090E0022E02C0880F9F
:10049000991F0A94E2F7809584238C9332C0A5E3D8
:1004A000B0E0E5E3F0E08081482F8B81282F30E039
:1004B00081E090E0022E02C0880F991F0A94E2F7B3
:1004C000809584238C931DC0A2E3B0E0E2E3F0E0CA
:1004D0008081482F8B81282F30E081E090E0022E30
:1004E00002C0880F991F0A94E2F7809584238C93A9
:1004F00008C08FEF898305C08FEF898302C08FEF1B
:100500008983898128960FB6F894DEBF0FBECDBFD0
:10051000CF91DF910895DF93CF93CDB7DEB72797C3
:100520000FB6F894DEBF0FBECDBF8A836B835D83A9
:100530004C8381E089838B81883008F079C08C817D
:100540009D81009709F474C08A81282F30E03F8391
:100550002E834E815F814130510559F18E819F81FB
:100560008230910534F42E813F812115310569F0E7
:100570005CC04E815F814230510579F18E819F814F
:100580008330910509F43DC050C0E9E3F0E080817B
:10059000282F30E08B81882F90E0A90102C055956B
:1005A00047958A95E2F7CA018170EC81FD818083CD
:1005B00041C0E6E3F0E08081282F30E08B81882F76
:1005C00090E0A90102C0559547958A95E2F7CA01C6
:1005D0008170EC81FD8180832DC0E3E3F0E08081B8
:1005E000282F30E08B81882F90E0A90102C055951B
:1005F00047958A95E2F7CA018170EC81FD8180837D
:1006000019C0E0E3F0E08081282F30E08B81882F53
:1006100090E0A90102C0559547958A95E2F7CA0175
:100620008170EC81FD81808305C08FEF898302C0DA
:100630008FEF8983898127960FB6F894DEBF0FBEAE
:10064000CDBFCF91DF910895DF93CF9300D000D03D
:100650000F92CDB7DEB78A836B8381E089838B816C
:100660008F3F19F08B818823A9F58A81282F30E0EC
:100670003D832C838C819D8181309105D1F02C812B
:100680003D81223031052CF48C819D81009761F0F1
:100690001FC02C813D812230310581F08C819D81EC
:1006A0008330910581F014C0EAE3F0E08B81808310
:1006B00011C0E7E3F0E08B8180830CC0E4E3F0E05D
:1006C0008B81808307C0E1E3F0E08B81808302C0EF
:1006D0008FEF898389810F900F900F900F900F906B
:1006E000CF91DF910895DF93CF9300D000D00F9288
:1006F000CDB7DEB78A836B8381E089838A81282F17
:1007000030E03D832C838C819D8181309105D1F037
:100710002C813D81223031052CF48C819D81009704
:1007200061F01FC02C813D812230310581F08C8128
:100730009D818330910581F014C0EBE3F0E08B8163
:10074000808311C0E8E3F0E08B8180830CC0E5E397
:10075000F0E08B81808307C0E2E3F0E08B8180834F
:1007600002C08FEF898389810F900F900F900F90B7
:100770000F90CF91DF910895DF93CF9300D000D0F9
:1007800000D0CDB7DEB78A837C836B8381E0898319
:100790008A81843008F041C08B819C810097E9F107
:1007A0008A81282F30E03E832D838D819E81813088
:1007B0009105E1F02D813E81223031052CF48D81AF
:1007C0009E81009761F027C02D813E812230310546
:1007D000A1F08D819E8183309105B1F01CC0E9E3C9
:1007E000F0E08081EB81FC81808317C0E6E3F0E0DC
:1007F0008081EB81FC81808310C0E3E3F0E08081A5
:10080000EB81FC81808309C0E0E3F0E08081EB8133
:10081000FC81808302C08FEF8983898126960FB681
:10082000F894DEBF0FBECDBFCF91DF910895DF9367
:10083000CF9300D00F92CDB7DEB78A836B8381E070
:1008400089838A816B8140E00E9465008983898168
:10085000813031F48A816B8141E00E947801898383
:1008600089810F900F900F90CF91DF910895DF93C2
:10087000CF9300D0CDB7DEB79A83898389819A81DF
:1008800090936D0080936C000F900F90CF91DF914B
:100890000895DF93CF93CDB7DEB7A7E2B0E0E7E2EC
:1008A000F0E080818F778C93A7E2B0E0E7E2F0E0A0
:1008B000808180648C93A7E2B0E0E7E2F0E0808181
:1008C00080628C93A6E2B0E0E6E2F0E080818F7D6A
:1008D0008C93A6E2B0E0E6E2F0E08081877F8C9323
:1008E000A6E2B0E0E6E2F0E0808187608C93A6E2C9
:1008F000B0E0E6E2F0E0808180688C93CF91DF91F8
:100900000895DF93CF93CDB7DEB728970FB6F8944D
:10091000DEBF0FBECDBF8E8378876F8381E08D836E
:1009200019821A821B821C8280916000813009F03A
:1009300061C08F819885009709F45AC0A7E2B0E0A2
:10094000E7E2F0E08081807E8C93A7E2B0E0E7E20E
:10095000F0E090818E81892B8C93A6E2B0E0E6E2F4
:10096000F0E0808180648C930BC089819A81AB8197
:10097000BC810196A11DB11D89839A83AB83BC8381
:10098000E6E2F0E0808182958F70882F90E08170A0
:100990009070009761F489819A81AB81BC81803429
:1009A00022E492072FE0A20720E0B207F0F289814B
:1009B0009A81AB81BC81803422E492072FE0A207A8
:1009C00020E0B20718F08FEF8D830DC0A6E2B0E0F3
:1009D000E6E2F0E0808180618C93E5E2F0E08081E6
:1009E000EF81F885808319821A821B821C8202C0E3
:1009F0008FEF8D838D8128960FB6F894DEBF0FBEE2
:100A0000CDBFCF91DF910895DF93CF930F92CDB7F4
:100A1000DEB7898380916000813019F581E0809391
:100A20006400A7E2B0E0E7E2F0E08081807E8C9392
:100A3000A7E2B0E0E7E2F0E090818981892B8C9316
:100A400082E080936000A6E2B0E0E6E2F0E0808120
:100A500080648C93A6E2B0E0E6E2F0E080818860FA
:100A60008C930F90CF91DF9108950F931F93DF9395
:100A7000CF9300D000D000D0CDB7DEB79E838D835A
:100A800081E08C831B821A8219821B8228C08D818F
:100A90009E819C012D5F3F4F8B81882F90E0820FBC
:100AA000931F9A8389838B81082F10E08B81282FD5
:100AB00030E08D819E81FC01E20FF31F808129814E
:100AC0003A81B9010E948104282F8D819E81800F77
:100AD000911FFC01369620838B818F5F8B838B81E6
:100AE0008330A8F28C8126960FB6F894DEBF0FBE35
:100AF000CDBFCF91DF911F910F910895DF93CF93D9
:100B000000D0CDB7DEB79A838983809160008130B1
:100B1000E9F50E94490082E08093640089819A810E
:100B2000909366008093650089819A8103969093E3
:100B3000680080936700A7E2B0E0E7E2F0E0808120
:100B4000807E8C93A7E2B0E0E7E2F0E04081209164
:100B500065003091660080916B00882F90E0F9016C
:100B6000E80FF91F8081842B8C9382E080936000D2
:100B7000A6E2B0E0E6E2F0E0808180648C93A6E239
:100B8000B0E0E6E2F0E0808188608C930F900F90F7
:100B9000CF91DF9108951F920F920FB60F921124FB
:100BA0002F933F934F935F936F937F938F939F9375
:100BB000AF93BF93EF93FF93DF93CF93CDB7DEB7A0
:100BC000809164008130C1F4A0916200B091630013
:100BD000E5E2F0E080818C93E0916C00F0916D0093
:100BE0000995A6E2B0E0E6E2F0E08081877F8C9391
:100BF00081E08093600050C080916400823009F0F1
:100C00004BC0209167003091680080916B00882F65
:100C100090E0D901A80FB91FE5E2F0E080818C9344
:100C2000E0916C00F0916D00099580916B008F5FF1
:100C300080936B0080916B00833069F481E0809336
:100C40006000A6E2B0E0E6E2F0E08081877F8C936E
:100C500010926B0021C0A7E2B0E0E7E2F0E08081F3
:100C6000807E8C93A7E2B0E0E7E2F0E04081209143
:100C700065003091660080916B00882F90E0F9014B
:100C8000E80FF91F8081842B8C93A6E2B0E0E6E2A6
:100C9000F0E0808180648C93CF91DF91FF91EF91A0
:100CA000BF91AF919F918F917F916F915F914F9184
:100CB0003F912F910F900FBE0F901F901895DF93CB
:100CC000CF93CDB7DEB781E06FEF0E94240382E0BF
:100CD0006FEF0E94240383E06FEF0E9424031092C1
:100CE000700081E08093710082E08093720082E85E
:100CF00096E00E9437040E94490480E790E00E9439
:100D00007E05FBCFDF93CF9300D0CDB7DEB78091C8
:100D10006B00282F30E03A83298389819A818130C2
:100D2000910581F029813A812230310591F0898144
:100D30009A810097A1F49091730081E0692F0E943D
:100D400073030DC09091740082E0692F0E947303B9
:100D500006C09091750083E0692F0E9473030F9085
:0C0D60000F90CF91DF910895F894FFCF21
:020D6C00010084
:00000001FF
